{
  "contractName": "Vote",
  "abi": [
    {
      "inputs": [],
      "stateMutability": "nonpayable",
      "type": "constructor"
    },
    {
      "inputs": [
        {
          "internalType": "uint256",
          "name": "",
          "type": "uint256"
        }
      ],
      "name": "proposals",
      "outputs": [
        {
          "internalType": "bytes32",
          "name": "name",
          "type": "bytes32"
        },
        {
          "internalType": "uint256",
          "name": "voteCount",
          "type": "uint256"
        }
      ],
      "stateMutability": "view",
      "type": "function",
      "constant": true
    },
    {
      "inputs": [
        {
          "internalType": "uint256",
          "name": "_idx",
          "type": "uint256"
        },
        {
          "internalType": "uint256",
          "name": "_voteTime",
          "type": "uint256"
        }
      ],
      "name": "vote",
      "outputs": [],
      "stateMutability": "nonpayable",
      "type": "function"
    },
    {
      "inputs": [
        {
          "internalType": "uint256",
          "name": "_requestTime",
          "type": "uint256"
        }
      ],
      "name": "giveWinnerName",
      "outputs": [
        {
          "internalType": "bytes32",
          "name": "",
          "type": "bytes32"
        }
      ],
      "stateMutability": "view",
      "type": "function",
      "constant": true
    }
  ],
  "bytecode": "0x608060405234801561001057600080fd5b5060405180604001604052807feab8b0ed98b82031ebb28800000000000000000000000000000000000000000081526020016000815250600160006004811061005c5761005b610244565b5b60020201600082015181600001556020820151816001015590505060405180604001604052807feab8b0ed98b82032ebb28800000000000000000000000000000000000000000081526020016000815250600180600481106100c1576100c0610244565b5b60020201600082015181600001556020820151816001015590505060405180604001604052807feab8b0ed98b82033ebb28800000000000000000000000000000000000000000081526020016000815250600160026004811061012757610126610244565b5b60020201600082015181600001556020820151816001015590505060405180604001604052807feab8b0ed98b82034ebb28800000000000000000000000000000000000000000081526020016000815250600160036004811061018d5761018c610244565b5b600202016000820151816000015560208201518160010155905050603c426101b591906102ac565b600981905550604051806040016040528060001515815260200160058152506000803373ffffffffffffffffffffffffffffffffffffffff1673ffffffffffffffffffffffffffffffffffffffff16815260200190815260200160002060008201518160000160006101000a81548160ff02191690831515021790555060208201518160010155905050610302565b7f4e487b7100000000000000000000000000000000000000000000000000000000600052603260045260246000fd5b6000819050919050565b7f4e487b7100000000000000000000000000000000000000000000000000000000600052601160045260246000fd5b60006102b782610273565b91506102c283610273565b9250827fffffffffffffffffffffffffffffffffffffffffffffffffffffffffffffffff038211156102f7576102f661027d565b5b828201905092915050565b610736806103116000396000f3fe608060405234801561001057600080fd5b50600436106100415760003560e01c8063013cf08b146100465780636daa2acb14610077578063b384abef146100a7575b600080fd5b610060600480360381019061005b91906103a2565b6100c3565b60405161006e9291906103f7565b60405180910390f35b610091600480360381019061008c91906103a2565b6100ed565b60405161009e9190610420565b60405180910390f35b6100c160048036038101906100bc919061043b565b610164565b005b600181600481106100d357600080fd5b600202016000915090508060000154908060010154905082565b6000600954821015610134576040517f08c379a000000000000000000000000000000000000000000000000000000000815260040161012b906104d8565b60405180910390fd5b600060016101406102ee565b60048110610151576101506104f8565b5b6002020160000154905080915050919050565b6000803373ffffffffffffffffffffffffffffffffffffffff1673ffffffffffffffffffffffffffffffffffffffff16815260200190815260200160002060000160009054906101000a900460ff16156101f3576040517f08c379a00000000000000000000000000000000000000000000000000000000081526004016101ea90610573565b60405180910390fd5b6009548110610237576040517f08c379a000000000000000000000000000000000000000000000000000000000815260040161022e906105df565b60405180910390fd5b60008060003373ffffffffffffffffffffffffffffffffffffffff1673ffffffffffffffffffffffffffffffffffffffff168152602001908152602001600020905060018160000160006101000a81548160ff0219169083151502179055506001836102a3919061062e565b81600101819055506001806001856102bb919061062e565b600481106102cc576102cb6104f8565b5b6002020160010160008282546102e29190610662565b92505081905550505050565b60008060009050600080600190505b600481101561035e57826001826004811061031b5761031a6104f8565b5b6002020160010154111561034b576001816004811061033d5761033c6104f8565b5b600202016001015492508091505b8080610356906106b8565b9150506102fd565b50809250505090565b600080fd5b6000819050919050565b61037f8161036c565b811461038a57600080fd5b50565b60008135905061039c81610376565b92915050565b6000602082840312156103b8576103b7610367565b5b60006103c68482850161038d565b91505092915050565b6000819050919050565b6103e2816103cf565b82525050565b6103f18161036c565b82525050565b600060408201905061040c60008301856103d9565b61041960208301846103e8565b9392505050565b600060208201905061043560008301846103d9565b92915050565b6000806040838503121561045257610451610367565b5b60006104608582860161038d565b92505060206104718582860161038d565b9150509250929050565b600082825260208201905092915050565b7f5761697420666f7220656e640000000000000000000000000000000000000000600082015250565b60006104c2600c8361047b565b91506104cd8261048c565b602082019050919050565b600060208201905081810360008301526104f1816104b5565b9050919050565b7f4e487b7100000000000000000000000000000000000000000000000000000000600052603260045260246000fd5b7f416c726561647920566f74656400000000000000000000000000000000000000600082015250565b600061055d600d8361047b565b915061056882610527565b602082019050919050565b6000602082019050818103600083015261058c81610550565b9050919050565b7f54696d65204f7665720000000000000000000000000000000000000000000000600082015250565b60006105c960098361047b565b91506105d482610593565b602082019050919050565b600060208201905081810360008301526105f8816105bc565b9050919050565b7f4e487b7100000000000000000000000000000000000000000000000000000000600052601160045260246000fd5b60006106398261036c565b91506106448361036c565b925082821015610657576106566105ff565b5b828203905092915050565b600061066d8261036c565b91506106788361036c565b9250827fffffffffffffffffffffffffffffffffffffffffffffffffffffffffffffffff038211156106ad576106ac6105ff565b5b828201905092915050565b60006106c38261036c565b91507fffffffffffffffffffffffffffffffffffffffffffffffffffffffffffffffff82036106f5576106f46105ff565b5b60018201905091905056fea2646970667358221220daa981766cdda31152d5b666e18e750655f60944abdce33f13ad3f0396500b7e64736f6c634300080e0033",
  "immutableReferences": {},
  "source": "// SPDX-License-Identifier: MIT\npragma solidity >=0.4.22 <0.9.0;\n\ncontract Vote {\n  struct Voter {\n    bool voted;\n    uint voteIdx;\n  }\n  struct Proposal {    // A struct for each proposal\n    bytes32 name;\n    uint voteCount;\n  }\n\n  mapping(address => Voter) private voter;    // state variable that store 'Vote' struct for each possible address\n  Proposal[4] public proposals;\n  uint deadline;\n\n  constructor() {    // Just give data statically\n    proposals[0] = Proposal({name: unicode\" 1\", voteCount: 0});\n    proposals[1] = Proposal({name: unicode\" 2\", voteCount: 0});\n    proposals[2] = Proposal({name: unicode\" 3\", voteCount: 0});\n    proposals[3] = Proposal({name: unicode\" 4\", voteCount: 0});\n    deadline = block.timestamp + 1 minutes;    // Setting voting time 1 minute to easy debugging.\n    voter[msg.sender] = Voter({voted: false, voteIdx: 5});\n  }\n\n  modifier noDuplicateVote {    // If msg.sender already voted, he can't!\n    require(!voter[msg.sender].voted, \"Already Voted\");\n    _;\n  }\n\n  function vote(uint _idx, uint _voteTime) external noDuplicateVote {\n    require(_voteTime < deadline, \"Time Over\");\n    Voter storage sender = voter[msg.sender];\n    sender.voted = true;\n    sender.voteIdx = _idx - 1;\n    proposals[_idx - 1].voteCount += 1;\n  }\n\n  function checkWinner() private view returns (uint) {\n    uint maxVoteCount = 0;\n    uint winnerIdx = 0;\n    for (uint i=1; i<proposals.length; i++) {\n      if (proposals[i].voteCount > maxVoteCount) {\n        maxVoteCount = proposals[i].voteCount;\n        winnerIdx = i;\n      }\n    }\n    return winnerIdx;\n  }\n\n  function giveWinnerName(uint _requestTime) public view returns (bytes32) {\n    require(_requestTime >= deadline, \"Wait for end\");\n    bytes32 winnerName = proposals[checkWinner()].name;\n    return winnerName;\n  }\n}\n",
  "sourcePath": "/home/user//Simple-Vote/contracts/Vote.sol",
  "compiler": {
    "name": "solc",
    "version": "0.8.14+commit.80d49f37.Emscripten.clang"
  },
  "schemaVersion": "3.4.7",
  "updatedAt": "2022-06-19T12:46:41.923Z",
  "networkType": "ethereum",
  "devdoc": {
    "kind": "dev",
    "methods": {},
    "version": 1
  },
  "userdoc": {
    "kind": "user",
    "methods": {},
    "version": 1
  }
}